S0140000554152545F56657273696F6E2E737265638F
S11300001BC02AC029C029C027C026C025C024C0BF
S11300104EC022C021C020C01FC01EC01DC01CC0B5
S11300201BC01AC019C018C017C016C015C014C010
S113003013C012C041542B0011241FBECFEFCDBFFB
S1130040DFE3DEBF2FE3A0E0BFE301C01D92A731D1
S1130050B207E1F79BD048C3D3CF1F920F920FB6DC
S11300600F9211248F939F93EF93FF938091023FFC
S11300709091033F01968093023F9093033FE09158
S1130080013FF0E0EE0FFF1FEC5FF04C80819181A7
S113009001968083918380E480930904FF91EF911A
S11300A09F918F910F900FBE0F901F9018951F92E4
S11300B00F920FB60F9211248F93EF93FF938091B9
S11300C0003F8F5F8093003F8091003F8530B0F008
S11300D01092003F8091013F8F5F8093013F809198
S11300E0013F853010F01092013FE091013FF0E0B4
S11300F0EE0FFF1FEC5FF04C1082118281E08093C1
S11301000B0AFF91EF918F910F900FBE0F901F90EC
S11301101895E0E0FAE08FE0808382E193E186A322
S113012097A381E0828708951092023F1092033FC3
S11301301092013FE0E0F4E080E4828382E0868B69
S1130140E8DF08958091023F9091033F089520E0F5
S113015030E080E090E00BC0F901EE0FFF1FEC5F90
S1130160F04C40815181840F951F2F5F3F4F253004
S1130170310590F3880F991F089560E080E690E0C0
S1130180ADD263E081E690E0A9D20895F6DF42D0D3
S1130190CBDF7894DCDFEC01D5DFBE018FD02FE913
S11301A086E891E0215080409040E1F700C00000D3
S11301B0F1CFAC0120E030E080E007C0FA01E20FAB
S11301C0F31F908189272F5F3F4F26173707B0F31E
S11301D00895CF93DF93EC0180E88D8380EC8E83C8
S11301E080E090E080D120E030E040E851E409D2A2
S11301F09B01AC0160E876E988E99DE4D3D020E076
S113020030E040E05FE362D03FD168877987DF91D7
S1130210CF910895E0E0F4E082E0818384E082837A
S113022081E08093010260E875E280E098E0D1DF2C
S11302300895FC01948195FFFDCF62830895EF92A8
S1130240FF920F931F93CF93DF937C018B01C0E048
S1130250D0E008C0F701EC0FFD1F608180E098E05A
S1130260E8DF2196C017D107A8F3DF91CF911F9142
S11302700F91FF90EF900895CF93DF9320E030E04B
S11302800AC0F901EC5CFF4FE491D901A25FB04CC4
S1130290EC932F5F3F4F2330310598F3CEE0DFE33B
S11302A09B838C837D836E8367E070E0CE0181DF66
S11302B08F838EEF8887DF91CF910895DDDF69E02A
S11302C070E08EE09FE3BBDF08955058BB27AA2758
S11302D00E947D010C94C7020E94B90238F00E946A
S11302E0C00220F039F49F3F19F426F40C94B602AE
S11302F00EF4E095E7FB0C94B002E92F0E94D802BB
S113030058F3BA17620773078407950720F079F446
S1130310A6F50C94FA020EF4E0950B2EBA2FA02D3C
S11303200B01B90190010C01CA01A0011124FF279E
S1130330591B99F0593F50F4503E68F11A16F04099
S1130340A22F232F342F4427585FF3CF4695379598
S11303502795A795F0405395C9F77EF41F16BA0B5D
S1130360620B730B840BBAF09150A1F0FF0FBB1F0B
S1130370661F771F881FC2F70EC0BA0F621F731F54
S1130380841F48F4879577956795B795F7959E3FB1
S113039008F0B0CF9395880F08F09927EE0F979542
S11303A0879508950E94E6010C94C7020E94C0023A
S11303B058F00E94B90240F029F45F3F29F00C94F0
S11303C0B00251110C94FB020C94B6020E94D802A4
S11303D068F39923B1F3552391F3951B550BBB2770
S11303E0AA2762177307840738F09F5F5F4F220FB5
S11303F0331F441FAA1FA9F335D00E2E3AF0E0E8AC
S113040032D091505040E695001CCAF72BD0FE2FF5
S113041029D0660F771F881FBB1F26173707480789
S1130420AB07B0E809F0BB0B802DBF01FF27935841
S11304305F4F3AF09E3F510578F00C94B0020C9453
S1130440FB025F3FE4F3983ED4F386957795679576
S1130450B795F7959F5FC9F7880F911D9695879576
S113046097F90895E1E0660F771F881FBB1F621795
S113047073078407BA0720F0621B730B840BBA0B53
S1130480EE1F88F7E09508950E94E00288F09F57D8
S113049098F0B92F9927B751B0F0E1F0660F771FA4
S11304A0881F991F1AF0BA95C9F714C0B13091F09A
S11304B00E94FA02B1E008950C94FA02672F782F93
S11304C08827B85F39F0B93FCCF38695779567955F
S11304D0B395D9F73EF490958095709561957F4FCB
S11304E08F4F9F4F0895E89409C097FB3EF4909571
S11304F08095709561957F4F8F4F9F4F9923A9F0F9
S1130500F92F96E9BB279395F69587957795679587
S1130510B795F111F8CFFAF4BB0F11F460FF1BC0CB
S11305206F5F7F4F8F4F9F4F16C0882311F096E95E
S113053011C0772321F09EE8872F762F05C066230C
S113054071F096E8862F70E060E02AF09A95660FC5
S1130550771F881FDAF7880F9695879597F908957E
S113056097F99F6780E870E060E008959FEF80EC62
S1130570089500240A941616170618060906089505
S113058000240A9412161306140605060895092E6B
S11305900394000C11F4882352F0BB0F40F4BF2BDA
S11305A011F460FF04C06F5F7F4F8F4F9F4F08951A
S11305B057FD9058440F551F59F05F3F71F0479510
S11305C0880F97FB991F61F09F3F79F087950895F5
S11305D0121613061406551FF2CF4695F1DF08C014
S11305E0161617061806991FF1CF86957105610531
S11305F008940895E894BB2766277727CB0197F9D9
S113060008950E9414030C94C7020E94B90238F0A2
S11306100E94C00220F0952311F00C94B0020C94B7
S1130620B60211240C94FB020E94D80270F3959F29
S1130630C1F3950F50E0551F629FF001729FBB27D5
S1130640F00DB11D639FAA27F00DB11DAA1F649F71
S11306506627B00DA11D661F829F2227B00DA11D24
S1130660621F739FB00DA11D621F839FA00D611DAA
S1130670221F749F3327A00D611D231F849F600DCB
S1130680211D822F762F6A2F11249F5750409AF0F4
S1130690F1F088234AF0EE0FFF1FBB1F661F771F80
S11306A0881F91505040A9F79E3F510580F00C944B
S11306B0B0020C94FB025F3FE4F3983ED4F38695BA
S11306C077956795B795F795E7959F5FC1F7FE2BEB
S11306D0880F911D9695879597F90895DC0128ED6B
S10F06E0209334006C930895F894FFCF2D
S9030000FC
